{
  "contractName": "test",
  "abi": [
    {
      "inputs": [],
      "name": "total",
      "outputs": [
        {
          "internalType": "uint256",
          "name": "",
          "type": "uint256"
        }
      ],
      "stateMutability": "view",
      "type": "function"
    },
    {
      "inputs": [],
      "name": "getName",
      "outputs": [
        {
          "internalType": "string",
          "name": "",
          "type": "string"
        }
      ],
      "stateMutability": "view",
      "type": "function"
    },
    {
      "inputs": [
        {
          "internalType": "string",
          "name": "_name",
          "type": "string"
        }
      ],
      "name": "setName",
      "outputs": [],
      "stateMutability": "nonpayable",
      "type": "function"
    },
    {
      "inputs": [],
      "name": "getMetic",
      "outputs": [],
      "stateMutability": "payable",
      "type": "function"
    }
  ],
  "bytecode": "0x60806040526040518060400160405280600481526020017f63686f6900000000000000000000000000000000000000000000000000000000815250600090816200004a9190620002d9565b503480156200005857600080fd5b50620003c0565b600081519050919050565b7f4e487b7100000000000000000000000000000000000000000000000000000000600052604160045260246000fd5b7f4e487b7100000000000000000000000000000000000000000000000000000000600052602260045260246000fd5b60006002820490506001821680620000e157607f821691505b602082108103620000f757620000f662000099565b5b50919050565b60008190508160005260206000209050919050565b60006020601f8301049050919050565b600082821b905092915050565b600060088302620001617fffffffffffffffffffffffffffffffffffffffffffffffffffffffffffffffff8262000122565b6200016d868362000122565b95508019841693508086168417925050509392505050565b6000819050919050565b6000819050919050565b6000620001ba620001b4620001ae8462000185565b6200018f565b62000185565b9050919050565b6000819050919050565b620001d68362000199565b620001ee620001e582620001c1565b8484546200012f565b825550505050565b600090565b62000205620001f6565b62000212818484620001cb565b505050565b5b818110156200023a576200022e600082620001fb565b60018101905062000218565b5050565b601f82111562000289576200025381620000fd565b6200025e8462000112565b810160208510156200026e578190505b620002866200027d8562000112565b83018262000217565b50505b505050565b600082821c905092915050565b6000620002ae600019846008026200028e565b1980831691505092915050565b6000620002c983836200029b565b9150826002028217905092915050565b620002e4826200005f565b67ffffffffffffffff8111156200030057620002ff6200006a565b5b6200030c8254620000c8565b620003198282856200023e565b600060209050601f8311600181146200035157600084156200033c578287015190505b620003488582620002bb565b865550620003b8565b601f1984166200036186620000fd565b60005b828110156200038b5784890151825560018201915060208501945060208101905062000364565b86831015620003ab5784890151620003a7601f8916826200029b565b8355505b6001600288020188555050505b505050505050565b61078380620003d06000396000f3fe60806040526004361061003f5760003560e01c806317d7de7c146100445780632a9c26c31461006f5780632ddbd13a14610079578063c47f0027146100a4575b600080fd5b34801561005057600080fd5b506100596100cd565b6040516100669190610224565b60405180910390f35b61007761015f565b005b34801561008557600080fd5b5061008e61017b565b60405161009b919061025f565b60405180910390f35b3480156100b057600080fd5b506100cb60048036038101906100c691906103c3565b610181565b005b6060600080546100dc9061043b565b80601f01602080910402602001604051908101604052809291908181526020018280546101089061043b565b80156101555780601f1061012a57610100808354040283529160200191610155565b820191906000526020600020905b81548152906001019060200180831161013857829003601f168201915b5050505050905090565b600034905080600154610172919061049b565b60018190555050565b60015481565b8060009081610190919061067b565b5050565b600081519050919050565b600082825260208201905092915050565b60005b838110156101ce5780820151818401526020810190506101b3565b60008484015250505050565b6000601f19601f8301169050919050565b60006101f682610194565b610200818561019f565b93506102108185602086016101b0565b610219816101da565b840191505092915050565b6000602082019050818103600083015261023e81846101eb565b905092915050565b6000819050919050565b61025981610246565b82525050565b60006020820190506102746000830184610250565b92915050565b6000604051905090565b600080fd5b600080fd5b600080fd5b600080fd5b7f4e487b7100000000000000000000000000000000000000000000000000000000600052604160045260246000fd5b6102d0826101da565b810181811067ffffffffffffffff821117156102ef576102ee610298565b5b80604052505050565b600061030261027a565b905061030e82826102c7565b919050565b600067ffffffffffffffff82111561032e5761032d610298565b5b610337826101da565b9050602081019050919050565b82818337600083830152505050565b600061036661036184610313565b6102f8565b90508281526020810184848401111561038257610381610293565b5b61038d848285610344565b509392505050565b600082601f8301126103aa576103a961028e565b5b81356103ba848260208601610353565b91505092915050565b6000602082840312156103d9576103d8610284565b5b600082013567ffffffffffffffff8111156103f7576103f6610289565b5b61040384828501610395565b91505092915050565b7f4e487b7100000000000000000000000000000000000000000000000000000000600052602260045260246000fd5b6000600282049050600182168061045357607f821691505b6020821081036104665761046561040c565b5b50919050565b7f4e487b7100000000000000000000000000000000000000000000000000000000600052601160045260246000fd5b60006104a682610246565b91506104b183610246565b92508282019050808211156104c9576104c861046c565b5b92915050565b60008190508160005260206000209050919050565b60006020601f8301049050919050565b600082821b905092915050565b6000600883026105317fffffffffffffffffffffffffffffffffffffffffffffffffffffffffffffffff826104f4565b61053b86836104f4565b95508019841693508086168417925050509392505050565b6000819050919050565b600061057861057361056e84610246565b610553565b610246565b9050919050565b6000819050919050565b6105928361055d565b6105a661059e8261057f565b848454610501565b825550505050565b600090565b6105bb6105ae565b6105c6818484610589565b505050565b5b818110156105ea576105df6000826105b3565b6001810190506105cc565b5050565b601f82111561062f57610600816104cf565b610609846104e4565b81016020851015610618578190505b61062c610624856104e4565b8301826105cb565b50505b505050565b600082821c905092915050565b600061065260001984600802610634565b1980831691505092915050565b600061066b8383610641565b9150826002028217905092915050565b61068482610194565b67ffffffffffffffff81111561069d5761069c610298565b5b6106a7825461043b565b6106b28282856105ee565b600060209050601f8311600181146106e557600084156106d3578287015190505b6106dd858261065f565b865550610745565b601f1984166106f3866104cf565b60005b8281101561071b578489015182556001820191506020850194506020810190506106f6565b868310156107385784890151610734601f891682610641565b8355505b6001600288020188555050505b50505050505056fea264697066735822122057b3d1001f58ae1707d212fe8dfb0382f8e046570e6d2c59cc75bbfa9a4fbf0864736f6c63430008100033",
  "immutableReferences": {},
  "source": "// SPDX-License-Identifier: MIT\npragma solidity ^0.8.6;\n\ncontract test {\n\n    string name = \"choi\";\n    uint256 public total;\n\n    function getName() public view returns(string memory) {\n        return name;\n    }\n\n    function setName(string memory _name) public {\n        name = _name;\n    }\n\n    function getMetic() public payable {\n        uint256 amount = msg.value;\n        total = total + amount;\n    }\n\n}",
  "sourcePath": "/Users/choiwonhyeok/Documents/test/contracts/Test.sol",
  "compiler": {
    "name": "solc",
    "version": "0.8.16+commit.07a7930e.Emscripten.clang"
  },
  "schemaVersion": "3.4.8",
  "updatedAt": "2022-08-31T11:06:55.765Z",
  "devdoc": {
    "kind": "dev",
    "methods": {},
    "version": 1
  },
  "userdoc": {
    "kind": "user",
    "methods": {},
    "version": 1
  }
}