{
  "contractName": "VRFv2Consumer",
  "abi": [
    {
      "inputs": [
        {
          "internalType": "uint64",
          "name": "subscriptionId",
          "type": "uint64"
        }
      ],
      "stateMutability": "nonpayable",
      "type": "constructor"
    },
    {
      "inputs": [
        {
          "internalType": "address",
          "name": "have",
          "type": "address"
        },
        {
          "internalType": "address",
          "name": "want",
          "type": "address"
        }
      ],
      "name": "OnlyCoordinatorCanFulfill",
      "type": "error"
    },
    {
      "anonymous": false,
      "inputs": [
        {
          "indexed": false,
          "internalType": "uint256",
          "name": "_i",
          "type": "uint256"
        },
        {
          "indexed": false,
          "internalType": "uint256",
          "name": "_2",
          "type": "uint256"
        },
        {
          "indexed": false,
          "internalType": "uint256",
          "name": "_3",
          "type": "uint256"
        },
        {
          "indexed": false,
          "internalType": "uint256",
          "name": "_4",
          "type": "uint256"
        }
      ],
      "name": "Result",
      "type": "event"
    },
    {
      "inputs": [],
      "name": "callbackGasLimit",
      "outputs": [
        {
          "internalType": "uint32",
          "name": "",
          "type": "uint32"
        }
      ],
      "stateMutability": "view",
      "type": "function",
      "constant": true
    },
    {
      "inputs": [
        {
          "internalType": "uint256",
          "name": "requestId",
          "type": "uint256"
        },
        {
          "internalType": "uint256[]",
          "name": "randomWords",
          "type": "uint256[]"
        }
      ],
      "name": "rawFulfillRandomWords",
      "outputs": [],
      "stateMutability": "nonpayable",
      "type": "function"
    },
    {
      "inputs": [
        {
          "internalType": "uint256",
          "name": "",
          "type": "uint256"
        }
      ],
      "name": "s_randomWords",
      "outputs": [
        {
          "internalType": "uint256",
          "name": "",
          "type": "uint256"
        }
      ],
      "stateMutability": "view",
      "type": "function",
      "constant": true
    },
    {
      "inputs": [],
      "name": "s_requestId",
      "outputs": [
        {
          "internalType": "uint256",
          "name": "",
          "type": "uint256"
        }
      ],
      "stateMutability": "view",
      "type": "function",
      "constant": true
    },
    {
      "inputs": [
        {
          "internalType": "uint32",
          "name": "_callbackGasLimit",
          "type": "uint32"
        }
      ],
      "name": "setCallbackGasLimit",
      "outputs": [],
      "stateMutability": "nonpayable",
      "type": "function"
    },
    {
      "inputs": [],
      "name": "requestRandomWords",
      "outputs": [],
      "stateMutability": "nonpayable",
      "type": "function"
    }
  ],
  "bytecode": "0x60a0604052737a1bac17ccc5b313516c5e16fb24f7659aa5ebed600160006101000a81548173ffffffffffffffffffffffffffffffffffffffff021916908373ffffffffffffffffffffffffffffffffffffffff1602179055507f4b09e658ed251bcafeebbc69400383d49f344ace09b9576fe248bb02c003fe9f60001b600255620186a0600360006101000a81548163ffffffff021916908363ffffffff1602179055506004600360046101000a81548161ffff021916908361ffff1602179055506014600360066101000a81548163ffffffff021916908363ffffffff1602179055503480156100f057600080fd5b50604051610c83380380610c8383398181016040528101906101129190610281565b600160009054906101000a900473ffffffffffffffffffffffffffffffffffffffff168073ffffffffffffffffffffffffffffffffffffffff1660808173ffffffffffffffffffffffffffffffffffffffff168152505050600160009054906101000a900473ffffffffffffffffffffffffffffffffffffffff166000806101000a81548173ffffffffffffffffffffffffffffffffffffffff021916908373ffffffffffffffffffffffffffffffffffffffff16021790555033600660006101000a81548173ffffffffffffffffffffffffffffffffffffffff021916908373ffffffffffffffffffffffffffffffffffffffff16021790555080600060146101000a81548167ffffffffffffffff021916908367ffffffffffffffff160217905550506102ae565b600080fd5b600067ffffffffffffffff82169050919050565b61025e81610241565b811461026957600080fd5b50565b60008151905061027b81610255565b92915050565b6000602082840312156102975761029661023c565b5b60006102a58482850161026c565b91505092915050565b6080516109b36102d060003960008181610117015261016b01526109b36000f3fe608060405234801561001057600080fd5b50600436106100625760003560e01c80631fe543e31461006757806324f7469714610083578063a4eb718c146100a1578063e0c86289146100bd578063e89e106a146100c7578063f6eaffc8146100e5575b600080fd5b610081600480360381019061007c919061060b565b610115565b005b61008b6101d5565b6040516100989190610686565b60405180910390f35b6100bb60048036038101906100b691906106cd565b6101eb565b005b6100c561020f565b005b6100cf610361565b6040516100dc9190610709565b60405180910390f35b6100ff60048036038101906100fa9190610724565b610367565b60405161010c9190610709565b60405180910390f35b7f000000000000000000000000000000000000000000000000000000000000000073ffffffffffffffffffffffffffffffffffffffff163373ffffffffffffffffffffffffffffffffffffffff16146101c757337f00000000000000000000000000000000000000000000000000000000000000006040517f1cf993f40000000000000000000000000000000000000000000000000000000081526004016101be929190610792565b60405180910390fd5b6101d1828261038b565b5050565b600360009054906101000a900463ffffffff1681565b80600360006101000a81548163ffffffff021916908363ffffffff16021790555050565b600660009054906101000a900473ffffffffffffffffffffffffffffffffffffffff1673ffffffffffffffffffffffffffffffffffffffff163373ffffffffffffffffffffffffffffffffffffffff161461026957600080fd5b60008054906101000a900473ffffffffffffffffffffffffffffffffffffffff1673ffffffffffffffffffffffffffffffffffffffff16635d3b1d30600254600060149054906101000a900467ffffffffffffffff16600360049054906101000a900461ffff16600360009054906101000a900463ffffffff16600360069054906101000a900463ffffffff166040518663ffffffff1660e01b8152600401610316959493929190610814565b6020604051808303816000875af1158015610335573d6000803e3d6000fd5b505050506040513d601f19601f82011682018060405250810190610359919061087c565b600581905550565b60055481565b6004818154811061037757600080fd5b906000526020600020016000915090505481565b7f6d18c1318fbab0c71591288b2dbc485b258a910c69ca68cc6251f8623b42e2bd600e826000815181106103c2576103c16108a9565b5b60200260200101516103d49190610907565b600e836001815181106103ea576103e96108a9565b5b60200260200101516103fc9190610907565b600e84600281518110610412576104116108a9565b5b60200260200101516104249190610907565b600e8560038151811061043a576104396108a9565b5b602002602001015161044c9190610907565b60405161045c9493929190610938565b60405180910390a15050565b6000604051905090565b600080fd5b600080fd5b6000819050919050565b61048f8161047c565b811461049a57600080fd5b50565b6000813590506104ac81610486565b92915050565b600080fd5b6000601f19601f8301169050919050565b7f4e487b7100000000000000000000000000000000000000000000000000000000600052604160045260246000fd5b610500826104b7565b810181811067ffffffffffffffff8211171561051f5761051e6104c8565b5b80604052505050565b6000610532610468565b905061053e82826104f7565b919050565b600067ffffffffffffffff82111561055e5761055d6104c8565b5b602082029050602081019050919050565b600080fd5b600061058761058284610543565b610528565b905080838252602082019050602084028301858111156105aa576105a961056f565b5b835b818110156105d357806105bf888261049d565b8452602084019350506020810190506105ac565b5050509392505050565b600082601f8301126105f2576105f16104b2565b5b8135610602848260208601610574565b91505092915050565b6000806040838503121561062257610621610472565b5b60006106308582860161049d565b925050602083013567ffffffffffffffff81111561065157610650610477565b5b61065d858286016105dd565b9150509250929050565b600063ffffffff82169050919050565b61068081610667565b82525050565b600060208201905061069b6000830184610677565b92915050565b6106aa81610667565b81146106b557600080fd5b50565b6000813590506106c7816106a1565b92915050565b6000602082840312156106e3576106e2610472565b5b60006106f1848285016106b8565b91505092915050565b6107038161047c565b82525050565b600060208201905061071e60008301846106fa565b92915050565b60006020828403121561073a57610739610472565b5b60006107488482850161049d565b91505092915050565b600073ffffffffffffffffffffffffffffffffffffffff82169050919050565b600061077c82610751565b9050919050565b61078c81610771565b82525050565b60006040820190506107a76000830185610783565b6107b46020830184610783565b9392505050565b6000819050919050565b6107ce816107bb565b82525050565b600067ffffffffffffffff82169050919050565b6107f1816107d4565b82525050565b600061ffff82169050919050565b61080e816107f7565b82525050565b600060a08201905061082960008301886107c5565b61083660208301876107e8565b6108436040830186610805565b6108506060830185610677565b61085d6080830184610677565b9695505050505050565b60008151905061087681610486565b92915050565b60006020828403121561089257610891610472565b5b60006108a084828501610867565b91505092915050565b7f4e487b7100000000000000000000000000000000000000000000000000000000600052603260045260246000fd5b7f4e487b7100000000000000000000000000000000000000000000000000000000600052601260045260246000fd5b60006109128261047c565b915061091d8361047c565b92508261092d5761092c6108d8565b5b828206905092915050565b600060808201905061094d60008301876106fa565b61095a60208301866106fa565b61096760408301856106fa565b61097460608301846106fa565b9594505050505056fea2646970667358221220e478024067665ab13644d315792d4b5ac8da9049ecf2508efe951a3578c0232564736f6c63430008110033",
  "immutableReferences": {
    "10": [
      {
        "length": 32,
        "start": 279
      },
      {
        "length": 32,
        "start": 363
      }
    ]
  },
  "source": "// SPDX-License-Identifier: MIT\n// An example of a consumer contract that relies on a subscription for funding.\npragma solidity ^0.8.7;\n\nimport \"@chainlink/contracts/src/v0.8/interfaces/VRFCoordinatorV2Interface.sol\";\nimport \"@chainlink/contracts/src/v0.8/VRFConsumerBaseV2.sol\";\n\n/**\n * THIS IS AN EXAMPLE CONTRACT THAT USES HARDCODED VALUES FOR CLARITY.\n * THIS IS AN EXAMPLE CONTRACT THAT USES UN-AUDITED CODE.\n * DO NOT USE THIS CODE IN PRODUCTION.\n */\ncontract VRFv2Consumer is VRFConsumerBaseV2 {\n  VRFCoordinatorV2Interface COORDINATOR;\n\n  event Result(uint _i,uint _2,uint _3,uint _4);\n  // Your subscription ID.\n  uint64 s_subscriptionId;\n\n  // Rinkeby coordinator. For other networks,\n  // see https://docs.chain.link/docs/vrf-contracts/#configurations\n  address vrfCoordinator = 0x7a1BaC17Ccc5b313516C5E16fb24f7659aA5ebed;\n\n  // The gas lane to use, which specifies the maximum gas price to bump to.\n  // For a list of available gas lanes on each network,\n  // see https://docs.chain.link/docs/vrf-contracts/#configurations\n  bytes32 keyHash = 0x4b09e658ed251bcafeebbc69400383d49f344ace09b9576fe248bb02c003fe9f;\n\n  // Depends on the number of requested values that you want sent to the\n  // fulfillRandomWords() function. Storing each word costs about 20,000 gas,\n  // so 100,000 is a safe default for this example contract. Test and adjust\n  // this limit based on the network that you select, the size of the request,\n  // and the processing of the callback request in the fulfillRandomWords()\n  // function.\n  uint32 public callbackGasLimit = 100000;\n\n  // The default is 3, but you can set this higher.\n  uint16 requestConfirmations = 4;\n\n  // For this example, retrieve 2 random values in one request.\n  // Cannot exceed VRFCoordinatorV2.MAX_NUM_WORDS.\n  uint32 numWords =  20;\n\n  uint256[] public s_randomWords;\n  uint256 public s_requestId;\n  address s_owner;\n\n  constructor(uint64 subscriptionId) VRFConsumerBaseV2(vrfCoordinator) {\n    COORDINATOR = VRFCoordinatorV2Interface(vrfCoordinator);\n    s_owner = msg.sender;\n    s_subscriptionId = subscriptionId;\n  }\n\nfunction setCallbackGasLimit(uint32 _callbackGasLimit) external {\n  callbackGasLimit = _callbackGasLimit;\n}\n  // Assumes the subscription is funded sufficiently.\n  function requestRandomWords() external onlyOwner {\n    // Will revert if subscription is not set and funded.\n    s_requestId = COORDINATOR.requestRandomWords(\n      keyHash,\n      s_subscriptionId,\n      requestConfirmations,\n      callbackGasLimit,\n      numWords\n    );\n  }\n\n  function fulfillRandomWords(\n    uint256, /* requestId */\n    uint256[] memory randomWords\n  ) internal override {\n    // s_randomWords = randomWords;\n\n    emit Result(randomWords[0] % 14, randomWords[1] % 14,randomWords[2] % 14,randomWords[3] % 14);\n  }\n\n  modifier onlyOwner() {\n    require(msg.sender == s_owner);\n    _;\n  }\n}\n",
  "sourcePath": "/Users/choiwonhyeok/Documents/test/contracts/vrf.sol",
  "compiler": {
    "name": "solc",
    "version": "0.8.17+commit.8df45f5f.Emscripten.clang"
  },
  "schemaVersion": "3.4.8",
  "updatedAt": "2022-10-23T12:46:49.396Z",
  "networkType": "ethereum",
  "devdoc": {
    "kind": "dev",
    "methods": {},
    "version": 1
  },
  "userdoc": {
    "kind": "user",
    "methods": {},
    "notice": "THIS IS AN EXAMPLE CONTRACT THAT USES HARDCODED VALUES FOR CLARITY. THIS IS AN EXAMPLE CONTRACT THAT USES UN-AUDITED CODE. DO NOT USE THIS CODE IN PRODUCTION.",
    "version": 1
  }
}