{
  "_format": "hh-sol-artifact-1",
  "contractName": "PARK",
  "sourceName": "contracts/PARK.sol",
  "abi": [
    {
      "inputs": [],
      "stateMutability": "nonpayable",
      "type": "constructor"
    },
    {
      "inputs": [],
      "name": "MinAmount",
      "type": "error"
    },
    {
      "inputs": [],
      "name": "NotEnoughBalance",
      "type": "error"
    },
    {
      "inputs": [],
      "name": "UnregisteredTicket",
      "type": "error"
    },
    {
      "inputs": [],
      "name": "ZeroAddress",
      "type": "error"
    },
    {
      "inputs": [],
      "name": "ZeroBytes",
      "type": "error"
    },
    {
      "anonymous": false,
      "inputs": [
        {
          "indexed": false,
          "internalType": "address",
          "name": "previousAdmin",
          "type": "address"
        },
        {
          "indexed": false,
          "internalType": "address",
          "name": "newAdmin",
          "type": "address"
        }
      ],
      "name": "AdminChanged",
      "type": "event"
    },
    {
      "anonymous": false,
      "inputs": [
        {
          "indexed": true,
          "internalType": "address",
          "name": "owner",
          "type": "address"
        },
        {
          "indexed": true,
          "internalType": "address",
          "name": "approved",
          "type": "address"
        },
        {
          "indexed": true,
          "internalType": "uint256",
          "name": "tokenId",
          "type": "uint256"
        }
      ],
      "name": "Approval",
      "type": "event"
    },
    {
      "anonymous": false,
      "inputs": [
        {
          "indexed": true,
          "internalType": "address",
          "name": "owner",
          "type": "address"
        },
        {
          "indexed": true,
          "internalType": "address",
          "name": "operator",
          "type": "address"
        },
        {
          "indexed": false,
          "internalType": "bool",
          "name": "approved",
          "type": "bool"
        }
      ],
      "name": "ApprovalForAll",
      "type": "event"
    },
    {
      "anonymous": false,
      "inputs": [
        {
          "indexed": true,
          "internalType": "address",
          "name": "beacon",
          "type": "address"
        }
      ],
      "name": "BeaconUpgraded",
      "type": "event"
    },
    {
      "anonymous": false,
      "inputs": [
        {
          "indexed": false,
          "internalType": "uint8",
          "name": "version",
          "type": "uint8"
        }
      ],
      "name": "Initialized",
      "type": "event"
    },
    {
      "anonymous": false,
      "inputs": [
        {
          "indexed": true,
          "internalType": "bytes32",
          "name": "role",
          "type": "bytes32"
        },
        {
          "indexed": true,
          "internalType": "bytes32",
          "name": "previousAdminRole",
          "type": "bytes32"
        },
        {
          "indexed": true,
          "internalType": "bytes32",
          "name": "newAdminRole",
          "type": "bytes32"
        }
      ],
      "name": "RoleAdminChanged",
      "type": "event"
    },
    {
      "anonymous": false,
      "inputs": [
        {
          "indexed": true,
          "internalType": "bytes32",
          "name": "role",
          "type": "bytes32"
        },
        {
          "indexed": true,
          "internalType": "address",
          "name": "account",
          "type": "address"
        },
        {
          "indexed": true,
          "internalType": "address",
          "name": "sender",
          "type": "address"
        }
      ],
      "name": "RoleGranted",
      "type": "event"
    },
    {
      "anonymous": false,
      "inputs": [
        {
          "indexed": true,
          "internalType": "bytes32",
          "name": "role",
          "type": "bytes32"
        },
        {
          "indexed": true,
          "internalType": "address",
          "name": "account",
          "type": "address"
        },
        {
          "indexed": true,
          "internalType": "address",
          "name": "sender",
          "type": "address"
        }
      ],
      "name": "RoleRevoked",
      "type": "event"
    },
    {
      "anonymous": false,
      "inputs": [
        {
          "indexed": true,
          "internalType": "address",
          "name": "from",
          "type": "address"
        },
        {
          "indexed": true,
          "internalType": "address",
          "name": "to",
          "type": "address"
        },
        {
          "indexed": true,
          "internalType": "uint256",
          "name": "tokenId",
          "type": "uint256"
        }
      ],
      "name": "Transfer",
      "type": "event"
    },
    {
      "anonymous": false,
      "inputs": [
        {
          "indexed": true,
          "internalType": "address",
          "name": "implementation",
          "type": "address"
        }
      ],
      "name": "Upgraded",
      "type": "event"
    },
    {
      "inputs": [],
      "name": "DEFAULT_ADMIN_ROLE",
      "outputs": [
        {
          "internalType": "bytes32",
          "name": "",
          "type": "bytes32"
        }
      ],
      "stateMutability": "view",
      "type": "function"
    },
    {
      "inputs": [],
      "name": "MANAGER_ROLE",
      "outputs": [
        {
          "internalType": "bytes32",
          "name": "",
          "type": "bytes32"
        }
      ],
      "stateMutability": "view",
      "type": "function"
    },
    {
      "inputs": [],
      "name": "MINTER_ROLE",
      "outputs": [
        {
          "internalType": "bytes32",
          "name": "",
          "type": "bytes32"
        }
      ],
      "stateMutability": "view",
      "type": "function"
    },
    {
      "inputs": [],
      "name": "REFUND_ROLE",
      "outputs": [
        {
          "internalType": "bytes32",
          "name": "",
          "type": "bytes32"
        }
      ],
      "stateMutability": "view",
      "type": "function"
    },
    {
      "inputs": [],
      "name": "TRANSFER_ROLE",
      "outputs": [
        {
          "internalType": "bytes32",
          "name": "",
          "type": "bytes32"
        }
      ],
      "stateMutability": "view",
      "type": "function"
    },
    {
      "inputs": [],
      "name": "UPGRADER_ROLE",
      "outputs": [
        {
          "internalType": "bytes32",
          "name": "",
          "type": "bytes32"
        }
      ],
      "stateMutability": "view",
      "type": "function"
    },
    {
      "inputs": [
        {
          "internalType": "address",
          "name": "holder",
          "type": "address"
        },
        {
          "internalType": "address",
          "name": "operator",
          "type": "address"
        }
      ],
      "name": "approvalForAllProxy",
      "outputs": [],
      "stateMutability": "nonpayable",
      "type": "function"
    },
    {
      "inputs": [
        {
          "internalType": "address",
          "name": "to",
          "type": "address"
        },
        {
          "internalType": "uint256",
          "name": "tokenId",
          "type": "uint256"
        }
      ],
      "name": "approve",
      "outputs": [],
      "stateMutability": "nonpayable",
      "type": "function"
    },
    {
      "inputs": [
        {
          "internalType": "address",
          "name": "owner",
          "type": "address"
        }
      ],
      "name": "balanceOf",
      "outputs": [
        {
          "internalType": "uint256",
          "name": "",
          "type": "uint256"
        }
      ],
      "stateMutability": "view",
      "type": "function"
    },
    {
      "inputs": [
        {
          "internalType": "uint256",
          "name": "tokenId",
          "type": "uint256"
        }
      ],
      "name": "burn",
      "outputs": [],
      "stateMutability": "nonpayable",
      "type": "function"
    },
    {
      "inputs": [
        {
          "internalType": "uint256",
          "name": "tokenId",
          "type": "uint256"
        }
      ],
      "name": "getApproved",
      "outputs": [
        {
          "internalType": "address",
          "name": "",
          "type": "address"
        }
      ],
      "stateMutability": "view",
      "type": "function"
    },
    {
      "inputs": [
        {
          "internalType": "uint256",
          "name": "tokenId",
          "type": "uint256"
        }
      ],
      "name": "getOriginCost",
      "outputs": [
        {
          "internalType": "uint256",
          "name": "",
          "type": "uint256"
        }
      ],
      "stateMutability": "view",
      "type": "function"
    },
    {
      "inputs": [
        {
          "internalType": "bytes32",
          "name": "title",
          "type": "bytes32"
        }
      ],
      "name": "getProductionCost",
      "outputs": [
        {
          "internalType": "uint256",
          "name": "",
          "type": "uint256"
        }
      ],
      "stateMutability": "view",
      "type": "function"
    },
    {
      "inputs": [
        {
          "internalType": "bytes32",
          "name": "role",
          "type": "bytes32"
        }
      ],
      "name": "getRoleAdmin",
      "outputs": [
        {
          "internalType": "bytes32",
          "name": "",
          "type": "bytes32"
        }
      ],
      "stateMutability": "view",
      "type": "function"
    },
    {
      "inputs": [
        {
          "internalType": "bytes32",
          "name": "title",
          "type": "bytes32"
        }
      ],
      "name": "getSnapshot",
      "outputs": [
        {
          "internalType": "uint256",
          "name": "",
          "type": "uint256"
        }
      ],
      "stateMutability": "view",
      "type": "function"
    },
    {
      "inputs": [
        {
          "internalType": "string",
          "name": "title",
          "type": "string"
        }
      ],
      "name": "getString",
      "outputs": [
        {
          "internalType": "bytes32",
          "name": "",
          "type": "bytes32"
        }
      ],
      "stateMutability": "pure",
      "type": "function"
    },
    {
      "inputs": [
        {
          "internalType": "bytes32",
          "name": "role",
          "type": "bytes32"
        },
        {
          "internalType": "address",
          "name": "account",
          "type": "address"
        }
      ],
      "name": "grantRole",
      "outputs": [],
      "stateMutability": "nonpayable",
      "type": "function"
    },
    {
      "inputs": [
        {
          "internalType": "bytes32",
          "name": "role",
          "type": "bytes32"
        },
        {
          "internalType": "address",
          "name": "account",
          "type": "address"
        }
      ],
      "name": "hasRole",
      "outputs": [
        {
          "internalType": "bool",
          "name": "",
          "type": "bool"
        }
      ],
      "stateMutability": "view",
      "type": "function"
    },
    {
      "inputs": [
        {
          "internalType": "address",
          "name": "_token",
          "type": "address"
        }
      ],
      "name": "initialize",
      "outputs": [],
      "stateMutability": "nonpayable",
      "type": "function"
    },
    {
      "inputs": [
        {
          "internalType": "address",
          "name": "owner",
          "type": "address"
        },
        {
          "internalType": "address",
          "name": "operator",
          "type": "address"
        }
      ],
      "name": "isApprovedForAll",
      "outputs": [
        {
          "internalType": "bool",
          "name": "",
          "type": "bool"
        }
      ],
      "stateMutability": "view",
      "type": "function"
    },
    {
      "inputs": [],
      "name": "name",
      "outputs": [
        {
          "internalType": "string",
          "name": "",
          "type": "string"
        }
      ],
      "stateMutability": "view",
      "type": "function"
    },
    {
      "inputs": [
        {
          "internalType": "uint256",
          "name": "tokenId",
          "type": "uint256"
        }
      ],
      "name": "ownerOf",
      "outputs": [
        {
          "internalType": "address",
          "name": "",
          "type": "address"
        }
      ],
      "stateMutability": "view",
      "type": "function"
    },
    {
      "inputs": [],
      "name": "proxiableUUID",
      "outputs": [
        {
          "internalType": "bytes32",
          "name": "",
          "type": "bytes32"
        }
      ],
      "stateMutability": "view",
      "type": "function"
    },
    {
      "inputs": [
        {
          "internalType": "bytes32",
          "name": "title",
          "type": "bytes32"
        },
        {
          "internalType": "uint256",
          "name": "cost",
          "type": "uint256"
        }
      ],
      "name": "registerTicket",
      "outputs": [],
      "stateMutability": "nonpayable",
      "type": "function"
    },
    {
      "inputs": [
        {
          "internalType": "bytes32",
          "name": "role",
          "type": "bytes32"
        },
        {
          "internalType": "address",
          "name": "account",
          "type": "address"
        }
      ],
      "name": "renounceRole",
      "outputs": [],
      "stateMutability": "nonpayable",
      "type": "function"
    },
    {
      "inputs": [
        {
          "internalType": "bytes32",
          "name": "role",
          "type": "bytes32"
        },
        {
          "internalType": "address",
          "name": "account",
          "type": "address"
        }
      ],
      "name": "revokeRole",
      "outputs": [],
      "stateMutability": "nonpayable",
      "type": "function"
    },
    {
      "inputs": [
        {
          "internalType": "address",
          "name": "to",
          "type": "address"
        },
        {
          "internalType": "string",
          "name": "uri",
          "type": "string"
        },
        {
          "internalType": "bytes32",
          "name": "title",
          "type": "bytes32"
        }
      ],
      "name": "safeMint",
      "outputs": [],
      "stateMutability": "nonpayable",
      "type": "function"
    },
    {
      "inputs": [
        {
          "internalType": "address",
          "name": "from",
          "type": "address"
        },
        {
          "internalType": "address",
          "name": "to",
          "type": "address"
        },
        {
          "internalType": "uint256",
          "name": "tokenId",
          "type": "uint256"
        }
      ],
      "name": "safeTransferFrom",
      "outputs": [],
      "stateMutability": "nonpayable",
      "type": "function"
    },
    {
      "inputs": [
        {
          "internalType": "address",
          "name": "from",
          "type": "address"
        },
        {
          "internalType": "address",
          "name": "to",
          "type": "address"
        },
        {
          "internalType": "uint256",
          "name": "tokenId",
          "type": "uint256"
        },
        {
          "internalType": "bytes",
          "name": "data",
          "type": "bytes"
        }
      ],
      "name": "safeTransferFrom",
      "outputs": [],
      "stateMutability": "nonpayable",
      "type": "function"
    },
    {
      "inputs": [
        {
          "internalType": "address",
          "name": "operator",
          "type": "address"
        },
        {
          "internalType": "bool",
          "name": "approved",
          "type": "bool"
        }
      ],
      "name": "setApprovalForAll",
      "outputs": [],
      "stateMutability": "nonpayable",
      "type": "function"
    },
    {
      "inputs": [
        {
          "internalType": "bytes4",
          "name": "interfaceId",
          "type": "bytes4"
        }
      ],
      "name": "supportsInterface",
      "outputs": [
        {
          "internalType": "bool",
          "name": "",
          "type": "bool"
        }
      ],
      "stateMutability": "view",
      "type": "function"
    },
    {
      "inputs": [],
      "name": "symbol",
      "outputs": [
        {
          "internalType": "string",
          "name": "",
          "type": "string"
        }
      ],
      "stateMutability": "view",
      "type": "function"
    },
    {
      "inputs": [],
      "name": "token",
      "outputs": [
        {
          "internalType": "contract IERC20Extensions",
          "name": "",
          "type": "address"
        }
      ],
      "stateMutability": "view",
      "type": "function"
    },
    {
      "inputs": [
        {
          "internalType": "uint256",
          "name": "tokenId",
          "type": "uint256"
        }
      ],
      "name": "tokenURI",
      "outputs": [
        {
          "internalType": "string",
          "name": "",
          "type": "string"
        }
      ],
      "stateMutability": "view",
      "type": "function"
    },
    {
      "inputs": [
        {
          "internalType": "address",
          "name": "from",
          "type": "address"
        },
        {
          "internalType": "address",
          "name": "to",
          "type": "address"
        },
        {
          "internalType": "uint256",
          "name": "tokenId",
          "type": "uint256"
        }
      ],
      "name": "transferFrom",
      "outputs": [],
      "stateMutability": "nonpayable",
      "type": "function"
    },
    {
      "inputs": [
        {
          "internalType": "address",
          "name": "newImplementation",
          "type": "address"
        }
      ],
      "name": "upgradeTo",
      "outputs": [],
      "stateMutability": "nonpayable",
      "type": "function"
    },
    {
      "inputs": [
        {
          "internalType": "address",
          "name": "newImplementation",
          "type": "address"
        },
        {
          "internalType": "bytes",
          "name": "data",
          "type": "bytes"
        }
      ],
      "name": "upgradeToAndCall",
      "outputs": [],
      "stateMutability": "payable",
      "type": "function"
    }
  ],
  "bytecode": "0x60a0604052306080523480156200001557600080fd5b506200002062000026565b620000e8565b600054610100900460ff1615620000935760405162461bcd60e51b815260206004820152602760248201527f496e697469616c697a61626c653a20636f6e747261637420697320696e697469604482015266616c697a696e6760c81b606482015260840160405180910390fd5b60005460ff9081161015620000e6576000805460ff191660ff9081179091556040519081527f7f26b83ff96e1f2b6a682f133852f6798a09c465da95921460cefb38474024989060200160405180910390a15b565b608051613e5d6200012060003960008181610c4601528181610cdc015281816110920152818161112801526112530152613e5d6000f3fe60806040526004361061026a5760003560e01c80635f01e2c111610153578063a22cb465116100cb578063d547741f1161007f578063ec87621c11610064578063ec87621c146107ba578063f72c0d8b146107ee578063fc0c546a1461082257600080fd5b8063d547741f14610744578063e985e9c51461076457600080fd5b8063c4d66de8116100b0578063c4d66de8146106d0578063c87b56dd146106f0578063d53913931461071057600080fd5b8063a22cb46514610690578063b88d4fde146106b057600080fd5b806370a082311161012257806395d89b411161010757806395d89b41146106465780639c981fcb1461065b578063a217fddf1461067b57600080fd5b806370a08231146105d357806391d14854146105f357600080fd5b80635f01e2c114610515578063627c0906146105515780636352211e146105855780637009ecd4146105a557600080fd5b80632f2ff15d116101e657806342966c68116101b55780634f1ef2861161019a5780634f1ef286146104cd57806352d1902d146104e057806352dc933f146104f557600080fd5b806342966c681461048d5780634e038a27146104ad57600080fd5b80632f2ff15d1461040d57806336568abe1461042d5780633659cfe61461044d57806342842e0e1461046d57600080fd5b8063095ea7b31161023d578063206b60f911610222578063206b60f91461038957806323b872dd146103bd578063248a9ca3146103dd57600080fd5b8063095ea7b31461032d57806310d8f9011461034d57600080fd5b806301ffc9a71461026f57806306b959e5146102a457806306fdde03146102c6578063081812fc146102e8575b600080fd5b34801561027b57600080fd5b5061028f61028a3660046135f9565b610850565b60405190151581526020015b60405180910390f35b3480156102b057600080fd5b506102c46102bf36600461363f565b610861565b005b3480156102d257600080fd5b506102db61089c565b60405161029b91906136e0565b3480156102f457600080fd5b506103086103033660046136f3565b61092e565b60405173ffffffffffffffffffffffffffffffffffffffff909116815260200161029b565b34801561033957600080fd5b506102c461034836600461370c565b610962565b34801561035957600080fd5b5061037b6103683660046136f3565b6000908152610195602052604090205490565b60405190815260200161029b565b34801561039557600080fd5b5061037b7f8502233096d909befbda0999bb8ea2f3a6be3c138b9fbf003752a4c8bce86f6c81565b3480156103c957600080fd5b506102c46103d8366004613736565b610aba565b3480156103e957600080fd5b5061037b6103f83660046136f3565b600090815260fb602052604090206001015490565b34801561041957600080fd5b506102c4610428366004613772565b610b71565b34801561043957600080fd5b506102c4610448366004613772565b610b96565b34801561045957600080fd5b506102c4610468366004613795565b610c2f565b34801561047957600080fd5b506102c4610488366004613736565b610e00565b34801561049957600080fd5b506102c46104a83660046136f3565b610e1b565b3480156104b957600080fd5b506102c46104c836600461388a565b610e61565b6102c46104db3660046138e1565b61107b565b3480156104ec57600080fd5b5061037b611239565b34801561050157600080fd5b506102c461051036600461392f565b61130b565b34801561052157600080fd5b5061037b6105303660046136f3565b60009081526101946020908152604080832054835261019390915290205490565b34801561055d57600080fd5b5061037b7ff1f91cdf1f18aaac45ca4aaddade87aabc2746f6d044da7cf8544558c577617281565b34801561059157600080fd5b506103086105a03660046136f3565b61138f565b3480156105b157600080fd5b5061037b6105c03660046136f3565b6000908152610193602052604090205490565b3480156105df57600080fd5b5061037b6105ee366004613795565b611401565b3480156105ff57600080fd5b5061028f61060e366004613772565b600091825260fb6020908152604080842073ffffffffffffffffffffffffffffffffffffffff93909316845291905290205460ff1690565b34801561065257600080fd5b506102db6114b5565b34801561066757600080fd5b5061037b610676366004613951565b6114c4565b34801561068757600080fd5b5061037b600081565b34801561069c57600080fd5b506102c46106ab366004613986565b6114f4565b3480156106bc57600080fd5b506102c46106cb3660046139c2565b6114ff565b3480156106dc57600080fd5b506102c46106eb366004613795565b6115b8565b3480156106fc57600080fd5b506102db61070b3660046136f3565b6118da565b34801561071c57600080fd5b5061037b7f9f2df0fed2c77648de5860a4cc508cd0818c85b8b8a1ab4ceeef8d981c8956a681565b34801561075057600080fd5b506102c461075f366004613772565b6118e5565b34801561077057600080fd5b5061028f61077f36600461363f565b73ffffffffffffffffffffffffffffffffffffffff9182166000908152606a6020908152604080832093909416825291909152205460ff1690565b3480156107c657600080fd5b5061037b7f241ecf16d79d0f8dbfb92cbc07fe17840425976cf0667f022fe9877caa831b0881565b3480156107fa57600080fd5b5061037b7f189ab7a9244df0848122154315af71fe140f3db0fe014031783b0946b8c9d2e381565b34801561082e57600080fd5b50610192546103089073ffffffffffffffffffffffffffffffffffffffff1681565b600061085b8261190a565b92915050565b7f8502233096d909befbda0999bb8ea2f3a6be3c138b9fbf003752a4c8bce86f6c61088b81611960565b6108978383600161196a565b505050565b6060606580546108ab90613a2a565b80601f01602080910402602001604051908101604052809291908181526020018280546108d790613a2a565b80156109245780601f106108f957610100808354040283529160200191610924565b820191906000526020600020905b81548152906001019060200180831161090757829003601f168201915b5050505050905090565b600061093982611a7d565b5060009081526069602052604090205473ffffffffffffffffffffffffffffffffffffffff1690565b600061096d8261138f565b90508073ffffffffffffffffffffffffffffffffffffffff168373ffffffffffffffffffffffffffffffffffffffff1603610a155760405162461bcd60e51b815260206004820152602160248201527f4552433732313a20617070726f76616c20746f2063757272656e74206f776e6560448201527f720000000000000000000000000000000000000000000000000000000000000060648201526084015b60405180910390fd5b3373ffffffffffffffffffffffffffffffffffffffff82161480610a3e5750610a3e813361077f565b610ab05760405162461bcd60e51b815260206004820152603d60248201527f4552433732313a20617070726f76652063616c6c6572206973206e6f7420746f60448201527f6b656e206f776e6572206f7220617070726f76656420666f7220616c6c0000006064820152608401610a0c565b6108978383611aee565b7f8502233096d909befbda0999bb8ea2f3a6be3c138b9fbf003752a4c8bce86f6c610ae481611960565b610aee3383611b8e565b610b605760405162461bcd60e51b815260206004820152602d60248201527f4552433732313a2063616c6c6572206973206e6f7420746f6b656e206f776e6560448201527f72206f7220617070726f766564000000000000000000000000000000000000006064820152608401610a0c565b610b6b848484611c4e565b50505050565b600082815260fb6020526040902060010154610b8c81611960565b6108978383611f08565b73ffffffffffffffffffffffffffffffffffffffff81163314610c215760405162461bcd60e51b815260206004820152602f60248201527f416363657373436f6e74726f6c3a2063616e206f6e6c792072656e6f756e636560448201527f20726f6c657320666f722073656c6600000000000000000000000000000000006064820152608401610a0c565b610c2b8282611ffc565b5050565b73ffffffffffffffffffffffffffffffffffffffff7f0000000000000000000000000000000000000000000000000000000000000000163003610cda5760405162461bcd60e51b815260206004820152602c60248201527f46756e6374696f6e206d7573742062652063616c6c6564207468726f7567682060448201527f64656c656761746563616c6c00000000000000000000000000000000000000006064820152608401610a0c565b7f000000000000000000000000000000000000000000000000000000000000000073ffffffffffffffffffffffffffffffffffffffff16610d4f7f360894a13ba1a3210667c828492db98dca3e2076cc3735a920a3ca505d382bbc5473ffffffffffffffffffffffffffffffffffffffff1690565b73ffffffffffffffffffffffffffffffffffffffff1614610dd85760405162461bcd60e51b815260206004820152602c60248201527f46756e6374696f6e206d7573742062652063616c6c6564207468726f7567682060448201527f6163746976652070726f787900000000000000000000000000000000000000006064820152608401610a0c565b610de1816120b7565b60408051600080825260208201909252610dfd918391906120e1565b50565b610897838383604051806020016040528060008152506114ff565b7ff1f91cdf1f18aaac45ca4aaddade87aabc2746f6d044da7cf8544558c5776172610e4581611960565b610e4e826122ac565b5060009081526101946020526040812055565b7f9f2df0fed2c77648de5860a4cc508cd0818c85b8b8a1ab4ceeef8d981c8956a6610e8b81611960565b6000828152610193602052604081205490819003610ed5576040517fe03809a300000000000000000000000000000000000000000000000000000000815260040160405180910390fd5b610192546040517f70a0823100000000000000000000000000000000000000000000000000000000815273ffffffffffffffffffffffffffffffffffffffff8781166004830152839216906370a0823190602401602060405180830381865afa158015610f46573d6000803e3d6000fd5b505050506040513d601f19601f82011682018060405250810190610f6a9190613a7d565b1015610fa2576040517fad3a8b9e00000000000000000000000000000000000000000000000000000000815260040160405180910390fd5b6000610fae6101915490565b9050610fbf61019180546001019055565b610fc986826122b5565b610fd381866122cf565b60008181526101946020526040908190208590556101925490517f79cc679000000000000000000000000000000000000000000000000000000000815273ffffffffffffffffffffffffffffffffffffffff888116600483015260248201859052909116906379cc679090604401600060405180830381600087803b15801561105b57600080fd5b505af115801561106f573d6000803e3d6000fd5b50505050505050505050565b73ffffffffffffffffffffffffffffffffffffffff7f00000000000000000000000000000000000000000000000000000000000000001630036111265760405162461bcd60e51b815260206004820152602c60248201527f46756e6374696f6e206d7573742062652063616c6c6564207468726f7567682060448201527f64656c656761746563616c6c00000000000000000000000000000000000000006064820152608401610a0c565b7f000000000000000000000000000000000000000000000000000000000000000073ffffffffffffffffffffffffffffffffffffffff1661119b7f360894a13ba1a3210667c828492db98dca3e2076cc3735a920a3ca505d382bbc5473ffffffffffffffffffffffffffffffffffffffff1690565b73ffffffffffffffffffffffffffffffffffffffff16146112245760405162461bcd60e51b815260206004820152602c60248201527f46756e6374696f6e206d7573742062652063616c6c6564207468726f7567682060448201527f6163746976652070726f787900000000000000000000000000000000000000006064820152608401610a0c565b61122d826120b7565b610c2b828260016120e1565b60003073ffffffffffffffffffffffffffffffffffffffff7f000000000000000000000000000000000000000000000000000000000000000016146112e65760405162461bcd60e51b815260206004820152603860248201527f555550535570677261646561626c653a206d757374206e6f742062652063616c60448201527f6c6564207468726f7567682064656c656761746563616c6c00000000000000006064820152608401610a0c565b507f360894a13ba1a3210667c828492db98dca3e2076cc3735a920a3ca505d382bbc90565b7f241ecf16d79d0f8dbfb92cbc07fe17840425976cf0667f022fe9877caa831b0861133581611960565b8261136c576040517f4b131c2e00000000000000000000000000000000000000000000000000000000815260040160405180910390fd5b506000918252610193602090815260408084209290925561019590529020439055565b60008181526067602052604081205473ffffffffffffffffffffffffffffffffffffffff168061085b5760405162461bcd60e51b815260206004820152601860248201527f4552433732313a20696e76616c696420746f6b656e20494400000000000000006044820152606401610a0c565b600073ffffffffffffffffffffffffffffffffffffffff821661148c5760405162461bcd60e51b815260206004820152602960248201527f4552433732313a2061646472657373207a65726f206973206e6f74206120766160448201527f6c6964206f776e657200000000000000000000000000000000000000000000006064820152608401610a0c565b5073ffffffffffffffffffffffffffffffffffffffff1660009081526068602052604090205490565b6060606680546108ab90613a2a565b6000816040516020016114d79190613a96565b604051602081830303815290604052805190602001209050919050565b610c2b33838361196a565b7f8502233096d909befbda0999bb8ea2f3a6be3c138b9fbf003752a4c8bce86f6c61152981611960565b6115333384611b8e565b6115a55760405162461bcd60e51b815260206004820152602d60248201527f4552433732313a2063616c6c6572206973206e6f7420746f6b656e206f776e6560448201527f72206f7220617070726f766564000000000000000000000000000000000000006064820152608401610a0c565b6115b18585858561237e565b5050505050565b600054610100900460ff16158080156115d85750600054600160ff909116105b806115f25750303b1580156115f2575060005460ff166001145b6116645760405162461bcd60e51b815260206004820152602e60248201527f496e697469616c697a61626c653a20636f6e747261637420697320616c72656160448201527f647920696e697469616c697a65640000000000000000000000000000000000006064820152608401610a0c565b600080547fffffffffffffffffffffffffffffffffffffffffffffffffffffffffffffff0016600117905580156116c257600080547fffffffffffffffffffffffffffffffffffffffffffffffffffffffffffff00ff166101001790555b6117366040518060400160405280600481526020017f5041524b000000000000000000000000000000000000000000000000000000008152506040518060400160405280600481526020017f5041524b00000000000000000000000000000000000000000000000000000000815250612407565b61173e61248e565b61174661248e565b61174e61248e565b61175661248e565b611761600033611f08565b61178b7f9f2df0fed2c77648de5860a4cc508cd0818c85b8b8a1ab4ceeef8d981c8956a633611f08565b6117b57f8502233096d909befbda0999bb8ea2f3a6be3c138b9fbf003752a4c8bce86f6c33611f08565b6117df7f241ecf16d79d0f8dbfb92cbc07fe17840425976cf0667f022fe9877caa831b0833611f08565b6118097ff1f91cdf1f18aaac45ca4aaddade87aabc2746f6d044da7cf8544558c577617233611f08565b6118337f189ab7a9244df0848122154315af71fe140f3db0fe014031783b0946b8c9d2e333611f08565b61019280547fffffffffffffffffffffffff00000000000000000000000000000000000000001673ffffffffffffffffffffffffffffffffffffffff84161790558015610c2b57600080547fffffffffffffffffffffffffffffffffffffffffffffffffffffffffffff00ff169055604051600181527f7f26b83ff96e1f2b6a682f133852f6798a09c465da95921460cefb38474024989060200160405180910390a15050565b606061085b8261250d565b600082815260fb602052604090206001015461190081611960565b6108978383611ffc565b60007fffffffff0000000000000000000000000000000000000000000000000000000082167f7965db0b00000000000000000000000000000000000000000000000000000000148061085b575061085b82612615565b610dfd81336126f8565b8173ffffffffffffffffffffffffffffffffffffffff168373ffffffffffffffffffffffffffffffffffffffff16036119e55760405162461bcd60e51b815260206004820152601960248201527f4552433732313a20617070726f766520746f2063616c6c6572000000000000006044820152606401610a0c565b73ffffffffffffffffffffffffffffffffffffffff8381166000818152606a602090815260408083209487168084529482529182902080547fffffffffffffffffffffffffffffffffffffffffffffffffffffffffffffff001686151590811790915591519182527f17307eab39ab6107e8899845ad3d59bd9653f200f220920489ca2b5937696c31910160405180910390a3505050565b60008181526067602052604090205473ffffffffffffffffffffffffffffffffffffffff16610dfd5760405162461bcd60e51b815260206004820152601860248201527f4552433732313a20696e76616c696420746f6b656e20494400000000000000006044820152606401610a0c565b600081815260696020526040902080547fffffffffffffffffffffffff00000000000000000000000000000000000000001673ffffffffffffffffffffffffffffffffffffffff84169081179091558190611b488261138f565b73ffffffffffffffffffffffffffffffffffffffff167f8c5be1e5ebec7d5bd14f71427d1e84f3dd0314c0f7b2291e5b200ac8c7c3b92560405160405180910390a45050565b600080611b9a8361138f565b90508073ffffffffffffffffffffffffffffffffffffffff168473ffffffffffffffffffffffffffffffffffffffff161480611c08575073ffffffffffffffffffffffffffffffffffffffff8082166000908152606a602090815260408083209388168352929052205460ff165b80611c4657508373ffffffffffffffffffffffffffffffffffffffff16611c2e8461092e565b73ffffffffffffffffffffffffffffffffffffffff16145b949350505050565b8273ffffffffffffffffffffffffffffffffffffffff16611c6e8261138f565b73ffffffffffffffffffffffffffffffffffffffff1614611cf75760405162461bcd60e51b815260206004820152602560248201527f4552433732313a207472616e736665722066726f6d20696e636f72726563742060448201527f6f776e65720000000000000000000000000000000000000000000000000000006064820152608401610a0c565b73ffffffffffffffffffffffffffffffffffffffff8216611d7f5760405162461bcd60e51b8152602060048201526024808201527f4552433732313a207472616e7366657220746f20746865207a65726f2061646460448201527f72657373000000000000000000000000000000000000000000000000000000006064820152608401610a0c565b611d8c8383836001612798565b8273ffffffffffffffffffffffffffffffffffffffff16611dac8261138f565b73ffffffffffffffffffffffffffffffffffffffff1614611e355760405162461bcd60e51b815260206004820152602560248201527f4552433732313a207472616e736665722066726f6d20696e636f72726563742060448201527f6f776e65720000000000000000000000000000000000000000000000000000006064820152608401610a0c565b600081815260696020908152604080832080547fffffffffffffffffffffffff000000000000000000000000000000000000000090811690915573ffffffffffffffffffffffffffffffffffffffff8781168086526068855283862080547fffffffffffffffffffffffffffffffffffffffffffffffffffffffffffffffff01905590871680865283862080546001019055868652606790945282852080549092168417909155905184937fddf252ad1be2c89b69c2b068fc378daa952ba7f163c4a11628f55a4df523b3ef91a4505050565b600082815260fb6020908152604080832073ffffffffffffffffffffffffffffffffffffffff8516845290915290205460ff16610c2b57600082815260fb6020908152604080832073ffffffffffffffffffffffffffffffffffffffff85168452909152902080547fffffffffffffffffffffffffffffffffffffffffffffffffffffffffffffff00166001179055611f9e3390565b73ffffffffffffffffffffffffffffffffffffffff168173ffffffffffffffffffffffffffffffffffffffff16837f2f8788117e7eff1d82e926ec794901d17c78024a50270940304540a733656f0d60405160405180910390a45050565b600082815260fb6020908152604080832073ffffffffffffffffffffffffffffffffffffffff8516845290915290205460ff1615610c2b57600082815260fb6020908152604080832073ffffffffffffffffffffffffffffffffffffffff8516808552925280832080547fffffffffffffffffffffffffffffffffffffffffffffffffffffffffffffff0016905551339285917ff6391f5c32d9c69d2a47ea670b442974b53935d1edc7fd64eb21e047a839171b9190a45050565b7f189ab7a9244df0848122154315af71fe140f3db0fe014031783b0946b8c9d2e3610c2b81611960565b7f4910fdfa16fed3260ed0e7147f7cc6da11a60208b5b9406d12a635614ffd91435460ff16156121145761089783612854565b8273ffffffffffffffffffffffffffffffffffffffff166352d1902d6040518163ffffffff1660e01b8152600401602060405180830381865afa925050508015612199575060408051601f3d9081017fffffffffffffffffffffffffffffffffffffffffffffffffffffffffffffffe016820190925261219691810190613a7d565b60015b61220b5760405162461bcd60e51b815260206004820152602e60248201527f45524331393637557067726164653a206e657720696d706c656d656e7461746960448201527f6f6e206973206e6f7420555550530000000000000000000000000000000000006064820152608401610a0c565b7f360894a13ba1a3210667c828492db98dca3e2076cc3735a920a3ca505d382bbc81146122a05760405162461bcd60e51b815260206004820152602960248201527f45524331393637557067726164653a20756e737570706f727465642070726f7860448201527f6961626c655555494400000000000000000000000000000000000000000000006064820152608401610a0c565b50610897838383612944565b610dfd81612969565b610c2b8282604051806020016040528060008152506129a9565b60008281526067602052604090205473ffffffffffffffffffffffffffffffffffffffff166123665760405162461bcd60e51b815260206004820152602e60248201527f45524337323155524953746f726167653a2055524920736574206f66206e6f6e60448201527f6578697374656e7420746f6b656e0000000000000000000000000000000000006064820152608401610a0c565b60008281526097602052604090206108978282613b00565b612389848484611c4e565b61239584848484612a32565b610b6b5760405162461bcd60e51b815260206004820152603260248201527f4552433732313a207472616e7366657220746f206e6f6e20455243373231526560448201527f63656976657220696d706c656d656e74657200000000000000000000000000006064820152608401610a0c565b600054610100900460ff166124845760405162461bcd60e51b815260206004820152602b60248201527f496e697469616c697a61626c653a20636f6e7472616374206973206e6f74206960448201527f6e697469616c697a696e670000000000000000000000000000000000000000006064820152608401610a0c565b610c2b8282612c0b565b600054610100900460ff1661250b5760405162461bcd60e51b815260206004820152602b60248201527f496e697469616c697a61626c653a20636f6e7472616374206973206e6f74206960448201527f6e697469616c697a696e670000000000000000000000000000000000000000006064820152608401610a0c565b565b606061251882611a7d565b6000828152609760205260408120805461253190613a2a565b80601f016020809104026020016040519081016040528092919081815260200182805461255d90613a2a565b80156125aa5780601f1061257f576101008083540402835291602001916125aa565b820191906000526020600020905b81548152906001019060200180831161258d57829003601f168201915b5050505050905060006125c860408051602081019091526000815290565b905080516000036125da575092915050565b81511561260c5780826040516020016125f4929190613c1a565b60405160208183030381529060405292505050919050565b611c4684612ca1565b60007fffffffff0000000000000000000000000000000000000000000000000000000082167f80ac58cd0000000000000000000000000000000000000000000000000000000014806126a857507fffffffff0000000000000000000000000000000000000000000000000000000082167f5b5e139f00000000000000000000000000000000000000000000000000000000145b8061085b57507f01ffc9a7000000000000000000000000000000000000000000000000000000007fffffffff0000000000000000000000000000000000000000000000000000000083161461085b565b600082815260fb6020908152604080832073ffffffffffffffffffffffffffffffffffffffff8516845290915290205460ff16610c2b5761273881612d15565b612743836020612d34565b604051602001612754929190613c49565b604080517fffffffffffffffffffffffffffffffffffffffffffffffffffffffffffffffe08184030181529082905262461bcd60e51b8252610a0c916004016136e0565b6001811115610b6b5773ffffffffffffffffffffffffffffffffffffffff8416156127f85773ffffffffffffffffffffffffffffffffffffffff8416600090815260686020526040812080548392906127f2908490613cf9565b90915550505b73ffffffffffffffffffffffffffffffffffffffff831615610b6b5773ffffffffffffffffffffffffffffffffffffffff831660009081526068602052604081208054839290612849908490613d0c565b909155505050505050565b73ffffffffffffffffffffffffffffffffffffffff81163b6128de5760405162461bcd60e51b815260206004820152602d60248201527f455243313936373a206e657720696d706c656d656e746174696f6e206973206e60448201527f6f74206120636f6e7472616374000000000000000000000000000000000000006064820152608401610a0c565b7f360894a13ba1a3210667c828492db98dca3e2076cc3735a920a3ca505d382bbc80547fffffffffffffffffffffffff00000000000000000000000000000000000000001673ffffffffffffffffffffffffffffffffffffffff92909216919091179055565b61294d83612f5d565b60008251118061295a5750805b1561089757610b6b8383612faa565b612972816130cf565b6000818152609760205260409020805461298b90613a2a565b159050610dfd576000818152609760205260408120610dfd9161357d565b6129b383836131b5565b6129c06000848484612a32565b6108975760405162461bcd60e51b815260206004820152603260248201527f4552433732313a207472616e7366657220746f206e6f6e20455243373231526560448201527f63656976657220696d706c656d656e74657200000000000000000000000000006064820152608401610a0c565b600073ffffffffffffffffffffffffffffffffffffffff84163b15612c00576040517f150b7a0200000000000000000000000000000000000000000000000000000000815273ffffffffffffffffffffffffffffffffffffffff85169063150b7a0290612aa9903390899088908890600401613d1f565b6020604051808303816000875af1925050508015612b02575060408051601f3d9081017fffffffffffffffffffffffffffffffffffffffffffffffffffffffffffffffe0168201909252612aff91810190613d68565b60015b612bb5573d808015612b30576040519150601f19603f3d011682016040523d82523d6000602084013e612b35565b606091505b508051600003612bad5760405162461bcd60e51b815260206004820152603260248201527f4552433732313a207472616e7366657220746f206e6f6e20455243373231526560448201527f63656976657220696d706c656d656e74657200000000000000000000000000006064820152608401610a0c565b805181602001fd5b7fffffffff00000000000000000000000000000000000000000000000000000000167f150b7a0200000000000000000000000000000000000000000000000000000000149050611c46565b506001949350505050565b600054610100900460ff16612c885760405162461bcd60e51b815260206004820152602b60248201527f496e697469616c697a61626c653a20636f6e7472616374206973206e6f74206960448201527f6e697469616c697a696e670000000000000000000000000000000000000000006064820152608401610a0c565b6065612c948382613b00565b5060666108978282613b00565b6060612cac82611a7d565b6000612cc360408051602081019091526000815290565b90506000815111612ce35760405180602001604052806000815250612d0e565b80612ced8461339a565b604051602001612cfe929190613c1a565b6040516020818303038152906040525b9392505050565b606061085b73ffffffffffffffffffffffffffffffffffffffff831660145b60606000612d43836002613d85565b612d4e906002613d0c565b67ffffffffffffffff811115612d6657612d666137b0565b6040519080825280601f01601f191660200182016040528015612d90576020820181803683370190505b5090507f300000000000000000000000000000000000000000000000000000000000000081600081518110612dc757612dc7613d9c565b60200101907effffffffffffffffffffffffffffffffffffffffffffffffffffffffffffff1916908160001a9053507f780000000000000000000000000000000000000000000000000000000000000081600181518110612e2a57612e2a613d9c565b60200101907effffffffffffffffffffffffffffffffffffffffffffffffffffffffffffff1916908160001a9053506000612e66846002613d85565b612e71906001613d0c565b90505b6001811115612f0e577f303132333435363738396162636465660000000000000000000000000000000085600f1660108110612eb257612eb2613d9c565b1a60f81b828281518110612ec857612ec8613d9c565b60200101907effffffffffffffffffffffffffffffffffffffffffffffffffffffffffffff1916908160001a90535060049490941c93612f0781613dcb565b9050612e74565b508315612d0e5760405162461bcd60e51b815260206004820181905260248201527f537472696e67733a20686578206c656e67746820696e73756666696369656e746044820152606401610a0c565b612f6681612854565b60405173ffffffffffffffffffffffffffffffffffffffff8216907fbc7cd75a20ee27fd9adebab32041f755214dbc6bffa90cc0225b39da2e5c2d3b90600090a250565b606073ffffffffffffffffffffffffffffffffffffffff83163b6130365760405162461bcd60e51b815260206004820152602660248201527f416464726573733a2064656c65676174652063616c6c20746f206e6f6e2d636f60448201527f6e747261637400000000000000000000000000000000000000000000000000006064820152608401610a0c565b6000808473ffffffffffffffffffffffffffffffffffffffff168460405161305e9190613a96565b600060405180830381855af49150503d8060008114613099576040519150601f19603f3d011682016040523d82523d6000602084013e61309e565b606091505b50915091506130c68282604051806060016040528060278152602001613e0160279139613458565b95945050505050565b60006130da8261138f565b90506130ea816000846001612798565b6130f38261138f565b600083815260696020908152604080832080547fffffffffffffffffffffffff000000000000000000000000000000000000000090811690915573ffffffffffffffffffffffffffffffffffffffff85168085526068845282852080547fffffffffffffffffffffffffffffffffffffffffffffffffffffffffffffffff0190558785526067909352818420805490911690555192935084927fddf252ad1be2c89b69c2b068fc378daa952ba7f163c4a11628f55a4df523b3ef908390a45050565b73ffffffffffffffffffffffffffffffffffffffff82166132185760405162461bcd60e51b815260206004820181905260248201527f4552433732313a206d696e7420746f20746865207a65726f20616464726573736044820152606401610a0c565b60008181526067602052604090205473ffffffffffffffffffffffffffffffffffffffff161561328a5760405162461bcd60e51b815260206004820152601c60248201527f4552433732313a20746f6b656e20616c7265616479206d696e746564000000006044820152606401610a0c565b613298600083836001612798565b60008181526067602052604090205473ffffffffffffffffffffffffffffffffffffffff161561330a5760405162461bcd60e51b815260206004820152601c60248201527f4552433732313a20746f6b656e20616c7265616479206d696e746564000000006044820152606401610a0c565b73ffffffffffffffffffffffffffffffffffffffff8216600081815260686020908152604080832080546001019055848352606790915280822080547fffffffffffffffffffffffff0000000000000000000000000000000000000000168417905551839291907fddf252ad1be2c89b69c2b068fc378daa952ba7f163c4a11628f55a4df523b3ef908290a45050565b606060006133a783613471565b600101905060008167ffffffffffffffff8111156133c7576133c76137b0565b6040519080825280601f01601f1916602001820160405280156133f1576020820181803683370190505b5090508181016020015b7fffffffffffffffffffffffffffffffffffffffffffffffffffffffffffffffff017f3031323334353637383961626364656600000000000000000000000000000000600a86061a8153600a85049450846133fb57509392505050565b60608315613467575081612d0e565b612d0e8383613553565b6000807a184f03e93ff9f4daa797ed6e38ed64bf6a1f01000000000000000083106134ba577a184f03e93ff9f4daa797ed6e38ed64bf6a1f010000000000000000830492506040015b6d04ee2d6d415b85acef810000000083106134e6576d04ee2d6d415b85acef8100000000830492506020015b662386f26fc10000831061350457662386f26fc10000830492506010015b6305f5e100831061351c576305f5e100830492506008015b612710831061353057612710830492506004015b60648310613542576064830492506002015b600a831061085b5760010192915050565b8151156135635781518083602001fd5b8060405162461bcd60e51b8152600401610a0c91906136e0565b50805461358990613a2a565b6000825580601f10613599575050565b601f016020900490600052602060002090810190610dfd91905b808211156135c757600081556001016135b3565b5090565b7fffffffff0000000000000000000000000000000000000000000000000000000081168114610dfd57600080fd5b60006020828403121561360b57600080fd5b8135612d0e816135cb565b803573ffffffffffffffffffffffffffffffffffffffff8116811461363a57600080fd5b919050565b6000806040838503121561365257600080fd5b61365b83613616565b915061366960208401613616565b90509250929050565b60005b8381101561368d578181015183820152602001613675565b50506000910152565b600081518084526136ae816020860160208601613672565b601f017fffffffffffffffffffffffffffffffffffffffffffffffffffffffffffffffe0169290920160200192915050565b602081526000612d0e6020830184613696565b60006020828403121561370557600080fd5b5035919050565b6000806040838503121561371f57600080fd5b61372883613616565b946020939093013593505050565b60008060006060848603121561374b57600080fd5b61375484613616565b925061376260208501613616565b9150604084013590509250925092565b6000806040838503121561378557600080fd5b8235915061366960208401613616565b6000602082840312156137a757600080fd5b612d0e82613616565b7f4e487b7100000000000000000000000000000000000000000000000000000000600052604160045260246000fd5b600082601f8301126137f057600080fd5b813567ffffffffffffffff8082111561380b5761380b6137b0565b604051601f83017fffffffffffffffffffffffffffffffffffffffffffffffffffffffffffffffe0908116603f01168101908282118183101715613851576138516137b0565b8160405283815286602085880101111561386a57600080fd5b836020870160208301376000602085830101528094505050505092915050565b60008060006060848603121561389f57600080fd5b6138a884613616565b9250602084013567ffffffffffffffff8111156138c457600080fd5b6138d0868287016137df565b925050604084013590509250925092565b600080604083850312156138f457600080fd5b6138fd83613616565b9150602083013567ffffffffffffffff81111561391957600080fd5b613925858286016137df565b9150509250929050565b6000806040838503121561394257600080fd5b50508035926020909101359150565b60006020828403121561396357600080fd5b813567ffffffffffffffff81111561397a57600080fd5b611c46848285016137df565b6000806040838503121561399957600080fd5b6139a283613616565b9150602083013580151581146139b757600080fd5b809150509250929050565b600080600080608085870312156139d857600080fd5b6139e185613616565b93506139ef60208601613616565b925060408501359150606085013567ffffffffffffffff811115613a1257600080fd5b613a1e878288016137df565b91505092959194509250565b600181811c90821680613a3e57607f821691505b602082108103613a77577f4e487b7100000000000000000000000000000000000000000000000000000000600052602260045260246000fd5b50919050565b600060208284031215613a8f57600080fd5b5051919050565b60008251613aa8818460208701613672565b9190910192915050565b601f82111561089757600081815260208120601f850160051c81016020861015613ad95750805b601f850160051c820191505b81811015613af857828155600101613ae5565b505050505050565b815167ffffffffffffffff811115613b1a57613b1a6137b0565b613b2e81613b288454613a2a565b84613ab2565b602080601f831160018114613b815760008415613b4b5750858301515b7fffffffffffffffffffffffffffffffffffffffffffffffffffffffffffffffff600386901b1c1916600185901b178555613af8565b6000858152602081207fffffffffffffffffffffffffffffffffffffffffffffffffffffffffffffffe08616915b82811015613bce57888601518255948401946001909101908401613baf565b5085821015613c0a57878501517fffffffffffffffffffffffffffffffffffffffffffffffffffffffffffffffff600388901b60f8161c191681555b5050505050600190811b01905550565b60008351613c2c818460208801613672565b835190830190613c40818360208801613672565b01949350505050565b7f416363657373436f6e74726f6c3a206163636f756e7420000000000000000000815260008351613c81816017850160208801613672565b7f206973206d697373696e6720726f6c65200000000000000000000000000000006017918401918201528351613cbe816028840160208801613672565b01602801949350505050565b7f4e487b7100000000000000000000000000000000000000000000000000000000600052601160045260246000fd5b8181038181111561085b5761085b613cca565b8082018082111561085b5761085b613cca565b600073ffffffffffffffffffffffffffffffffffffffff808716835280861660208401525083604083015260806060830152613d5e6080830184613696565b9695505050505050565b600060208284031215613d7a57600080fd5b8151612d0e816135cb565b808202811582820484141761085b5761085b613cca565b7f4e487b7100000000000000000000000000000000000000000000000000000000600052603260045260246000fd5b600081613dda57613dda613cca565b507fffffffffffffffffffffffffffffffffffffffffffffffffffffffffffffffff019056fe416464726573733a206c6f772d6c6576656c2064656c65676174652063616c6c206661696c6564a2646970667358221220993e329ea2295171d4ff2fba1dcff26f0a7736d12f84ecb33515d73f031557b364736f6c63430008110033",
  "linkReferences": {},
  "deployedLinkReferences": {}
}