{
  "_format": "hh-sol-artifact-1",
  "contractName": "Ticketing",
  "sourceName": "contracts/Ticketing.sol",
  "abi": [
    {
      "inputs": [
        {
          "internalType": "address",
          "name": "_token",
          "type": "address"
        },
        {
          "internalType": "address",
          "name": "_nft",
          "type": "address"
        }
      ],
      "stateMutability": "nonpayable",
      "type": "constructor"
    },
    {
      "inputs": [],
      "name": "DuplicateApplication",
      "type": "error"
    },
    {
      "inputs": [],
      "name": "MinAmount",
      "type": "error"
    },
    {
      "inputs": [],
      "name": "NotEnoughBalance",
      "type": "error"
    },
    {
      "inputs": [],
      "name": "NotSubjectToMinting",
      "type": "error"
    },
    {
      "inputs": [],
      "name": "UnregisteredTicket",
      "type": "error"
    },
    {
      "inputs": [],
      "name": "ZeroAddress",
      "type": "error"
    },
    {
      "inputs": [],
      "name": "ZeroBytes",
      "type": "error"
    },
    {
      "anonymous": false,
      "inputs": [
        {
          "indexed": false,
          "internalType": "address",
          "name": "applicant",
          "type": "address"
        },
        {
          "indexed": false,
          "internalType": "bytes32",
          "name": "title",
          "type": "bytes32"
        }
      ],
      "name": "Enter",
      "type": "event"
    },
    {
      "anonymous": false,
      "inputs": [
        {
          "indexed": true,
          "internalType": "address",
          "name": "previousOwner",
          "type": "address"
        },
        {
          "indexed": true,
          "internalType": "address",
          "name": "newOwner",
          "type": "address"
        }
      ],
      "name": "OwnershipTransferred",
      "type": "event"
    },
    {
      "inputs": [
        {
          "internalType": "bytes32",
          "name": "",
          "type": "bytes32"
        }
      ],
      "name": "_merkleRoot",
      "outputs": [
        {
          "internalType": "bytes32",
          "name": "",
          "type": "bytes32"
        }
      ],
      "stateMutability": "view",
      "type": "function"
    },
    {
      "inputs": [
        {
          "internalType": "bytes32",
          "name": "title",
          "type": "bytes32"
        },
        {
          "internalType": "bytes32",
          "name": "merkleRoot",
          "type": "bytes32"
        }
      ],
      "name": "airdrop",
      "outputs": [],
      "stateMutability": "nonpayable",
      "type": "function"
    },
    {
      "inputs": [
        {
          "internalType": "bytes32",
          "name": "title",
          "type": "bytes32"
        },
        {
          "internalType": "address",
          "name": "buyer",
          "type": "address"
        },
        {
          "internalType": "string",
          "name": "uri",
          "type": "string"
        },
        {
          "internalType": "bytes32[]",
          "name": "merkleProof",
          "type": "bytes32[]"
        }
      ],
      "name": "buyNft",
      "outputs": [],
      "stateMutability": "nonpayable",
      "type": "function"
    },
    {
      "inputs": [
        {
          "internalType": "bytes32",
          "name": "title",
          "type": "bytes32"
        },
        {
          "internalType": "address",
          "name": "claimer",
          "type": "address"
        },
        {
          "internalType": "bytes32[]",
          "name": "merkleProof",
          "type": "bytes32[]"
        }
      ],
      "name": "canClaim",
      "outputs": [
        {
          "internalType": "bool",
          "name": "",
          "type": "bool"
        }
      ],
      "stateMutability": "view",
      "type": "function"
    },
    {
      "inputs": [
        {
          "internalType": "address",
          "name": "applicant",
          "type": "address"
        },
        {
          "internalType": "bytes32",
          "name": "title",
          "type": "bytes32"
        }
      ],
      "name": "enter",
      "outputs": [],
      "stateMutability": "nonpayable",
      "type": "function"
    },
    {
      "inputs": [
        {
          "internalType": "bytes32",
          "name": "",
          "type": "bytes32"
        },
        {
          "internalType": "address",
          "name": "",
          "type": "address"
        }
      ],
      "name": "isEntry",
      "outputs": [
        {
          "internalType": "bool",
          "name": "",
          "type": "bool"
        }
      ],
      "stateMutability": "view",
      "type": "function"
    },
    {
      "inputs": [],
      "name": "nft",
      "outputs": [
        {
          "internalType": "contract IERC721Extensions",
          "name": "",
          "type": "address"
        }
      ],
      "stateMutability": "view",
      "type": "function"
    },
    {
      "inputs": [],
      "name": "owner",
      "outputs": [
        {
          "internalType": "address",
          "name": "",
          "type": "address"
        }
      ],
      "stateMutability": "view",
      "type": "function"
    },
    {
      "inputs": [],
      "name": "renounceOwnership",
      "outputs": [],
      "stateMutability": "nonpayable",
      "type": "function"
    },
    {
      "inputs": [],
      "name": "token",
      "outputs": [
        {
          "internalType": "contract IERC20",
          "name": "",
          "type": "address"
        }
      ],
      "stateMutability": "view",
      "type": "function"
    },
    {
      "inputs": [
        {
          "internalType": "address",
          "name": "newOwner",
          "type": "address"
        }
      ],
      "name": "transferOwnership",
      "outputs": [],
      "stateMutability": "nonpayable",
      "type": "function"
    }
  ],
  "bytecode": "0x608060405234801561001057600080fd5b50604051610dff380380610dff83398101604081905261002f916100d5565b61003833610069565b600180546001600160a01b039384166001600160a01b03199182161790915560028054929093169116179055610108565b600080546001600160a01b038381166001600160a01b0319831681178455604051919092169283917f8be0079c531659141344cd1fd0a4f28419497f9722a3daafe3b4186f6b6457e09190a35050565b80516001600160a01b03811681146100d057600080fd5b919050565b600080604083850312156100e857600080fd5b6100f1836100b9565b91506100ff602084016100b9565b90509250929050565b610ce8806101176000396000f3fe608060405234801561001057600080fd5b50600436106100c95760003560e01c8063a678ac1011610081578063f7d9c63f1161005b578063f7d9c63f146101e5578063fc0c546a146101f8578063fc2b6fe21461021857600080fd5b8063a678ac1014610191578063d6aedd26146101a4578063f2fde38b146101d257600080fd5b8063715018a6116100b2578063715018a6146101565780637a4d40bf146101605780638da5cb5b1461017357600080fd5b806347ccca02146100ce5780634965bdc014610118575b600080fd5b6002546100ee9073ffffffffffffffffffffffffffffffffffffffff1681565b60405173ffffffffffffffffffffffffffffffffffffffff90911681526020015b60405180910390f35b6101466101263660046108e4565b600460209081526000928352604080842090915290825290205460ff1681565b604051901515815260200161010f565b61015e61022b565b005b61015e61016e36600461098b565b61023f565b60005473ffffffffffffffffffffffffffffffffffffffff166100ee565b61015e61019f366004610aa0565b610314565b6101c46101b2366004610aca565b60036020526000908152604090205481565b60405190815260200161010f565b61015e6101e0366004610ae3565b6104e7565b61015e6101f3366004610afe565b6105a3565b6001546100ee9073ffffffffffffffffffffffffffffffffffffffff1681565b610146610226366004610b20565b610689565b610233610730565b61023d60006107b1565b565b61024b85858484610689565b610281576040517fb6b0013500000000000000000000000000000000000000000000000000000000815260040160405180910390fd5b6002546040517f4e038a2700000000000000000000000000000000000000000000000000000000815273ffffffffffffffffffffffffffffffffffffffff90911690634e038a27906102db90879087908a90600401610b7a565b600060405180830381600087803b1580156102f557600080fd5b505af1158015610309573d6000803e3d6000fd5b505050505050505050565b61031c610730565b6002546040517f7009ecd40000000000000000000000000000000000000000000000000000000081526004810183905273ffffffffffffffffffffffffffffffffffffffff90911690637009ecd490602401602060405180830381865afa15801561038b573d6000803e3d6000fd5b505050506040513d601f19601f820116820180604052508101906103af9190610c0b565b6000036103e8576040517fe03809a300000000000000000000000000000000000000000000000000000000815260040160405180910390fd5b600081815260046020908152604080832073ffffffffffffffffffffffffffffffffffffffff8616845290915290205460ff1615610452576040517f8097e15700000000000000000000000000000000000000000000000000000000815260040160405180910390fd5b600081815260046020908152604080832073ffffffffffffffffffffffffffffffffffffffff86168085529083529281902080547fffffffffffffffffffffffffffffffffffffffffffffffffffffffffffffff0016600117905580519283529082018390527f97b6e5537ab78063c4d9c4d8f3b815bbb35fc531f11686ecb0ac96c06b96f8b3910160405180910390a15050565b6104ef610730565b73ffffffffffffffffffffffffffffffffffffffff8116610597576040517f08c379a000000000000000000000000000000000000000000000000000000000815260206004820152602660248201527f4f776e61626c653a206e6577206f776e657220697320746865207a65726f206160448201527f646472657373000000000000000000000000000000000000000000000000000060648201526084015b60405180910390fd5b6105a0816107b1565b50565b6105ab610730565b6002546040517f7009ecd40000000000000000000000000000000000000000000000000000000081526004810184905273ffffffffffffffffffffffffffffffffffffffff90911690637009ecd490602401602060405180830381865afa15801561061a573d6000803e3d6000fd5b505050506040513d601f19601f8201168201806040525081019061063e9190610c0b565b600003610677576040517fe03809a300000000000000000000000000000000000000000000000000000000815260040160405180910390fd5b60009182526003602052604090912055565b600061072783838080602002602001604051908101604052809392919081815260200183836020028082843760009201829052508a81526003602090815260409182902054915191945061070c93508a92500160609190911b7fffffffffffffffffffffffffffffffffffffffff00000000000000000000000016815260140190565b60405160208183030381529060405280519060200120610826565b95945050505050565b60005473ffffffffffffffffffffffffffffffffffffffff16331461023d576040517f08c379a000000000000000000000000000000000000000000000000000000000815260206004820181905260248201527f4f776e61626c653a2063616c6c6572206973206e6f7420746865206f776e6572604482015260640161058e565b6000805473ffffffffffffffffffffffffffffffffffffffff8381167fffffffffffffffffffffffff0000000000000000000000000000000000000000831681178455604051919092169283917f8be0079c531659141344cd1fd0a4f28419497f9722a3daafe3b4186f6b6457e09190a35050565b600082610833858461083c565b14949350505050565b600081815b84518110156108815761086d8286838151811061086057610860610c24565b6020026020010151610889565b91508061087981610c53565b915050610841565b509392505050565b60008183106108a55760008281526020849052604090206108b4565b60008381526020839052604090205b9392505050565b803573ffffffffffffffffffffffffffffffffffffffff811681146108df57600080fd5b919050565b600080604083850312156108f757600080fd5b82359150610907602084016108bb565b90509250929050565b7f4e487b7100000000000000000000000000000000000000000000000000000000600052604160045260246000fd5b60008083601f84011261095157600080fd5b50813567ffffffffffffffff81111561096957600080fd5b6020830191508360208260051b850101111561098457600080fd5b9250929050565b6000806000806000608086880312156109a357600080fd5b853594506109b3602087016108bb565b9350604086013567ffffffffffffffff808211156109d057600080fd5b818801915088601f8301126109e457600080fd5b8135818111156109f6576109f6610910565b604051601f82017fffffffffffffffffffffffffffffffffffffffffffffffffffffffffffffffe0908116603f01168101908382118183101715610a3c57610a3c610910565b816040528281528b6020848701011115610a5557600080fd5b826020860160208301376000602084830101528097505050506060880135915080821115610a8257600080fd5b50610a8f8882890161093f565b969995985093965092949392505050565b60008060408385031215610ab357600080fd5b610abc836108bb565b946020939093013593505050565b600060208284031215610adc57600080fd5b5035919050565b600060208284031215610af557600080fd5b6108b4826108bb565b60008060408385031215610b1157600080fd5b50508035926020909101359150565b60008060008060608587031215610b3657600080fd5b84359350610b46602086016108bb565b9250604085013567ffffffffffffffff811115610b6257600080fd5b610b6e8782880161093f565b95989497509550505050565b73ffffffffffffffffffffffffffffffffffffffff8416815260006020606081840152845180606085015260005b81811015610bc457868101830151858201608001528201610ba8565b5060006080828601015260807fffffffffffffffffffffffffffffffffffffffffffffffffffffffffffffffe0601f83011685010192505050826040830152949350505050565b600060208284031215610c1d57600080fd5b5051919050565b7f4e487b7100000000000000000000000000000000000000000000000000000000600052603260045260246000fd5b60007fffffffffffffffffffffffffffffffffffffffffffffffffffffffffffffffff8203610cab577f4e487b7100000000000000000000000000000000000000000000000000000000600052601160045260246000fd5b506001019056fea2646970667358221220322b29e6e781ef9c9e5e065271254fd45eda662530d438982611c27e5dfbe6e664736f6c63430008110033",
  "linkReferences": {},
  "deployedLinkReferences": {}
}